{
  "abi": [
    {
      "type": "function",
      "name": "fileExist",
      "inputs": [
        {
          "name": "",
          "type": "string",
          "internalType": "string"
        }
      ],
      "outputs": [
        {
          "name": "",
          "type": "bool",
          "internalType": "bool"
        }
      ],
      "stateMutability": "view"
    },
    {
      "type": "function",
      "name": "fileList",
      "inputs": [
        {
          "name": "",
          "type": "uint256",
          "internalType": "uint256"
        }
      ],
      "outputs": [
        {
          "name": "ID",
          "type": "uint256",
          "internalType": "uint256"
        },
        {
          "name": "fileName",
          "type": "string",
          "internalType": "string"
        },
        {
          "name": "ipfsHash",
          "type": "string",
          "internalType": "string"
        },
        {
          "name": "createdAt",
          "type": "string",
          "internalType": "string"
        }
      ],
      "stateMutability": "view"
    },
    {
      "type": "function",
      "name": "files",
      "inputs": [
        {
          "name": "",
          "type": "string",
          "internalType": "string"
        }
      ],
      "outputs": [
        {
          "name": "ID",
          "type": "uint256",
          "internalType": "uint256"
        },
        {
          "name": "fileName",
          "type": "string",
          "internalType": "string"
        },
        {
          "name": "ipfsHash",
          "type": "string",
          "internalType": "string"
        },
        {
          "name": "createdAt",
          "type": "string",
          "internalType": "string"
        }
      ],
      "stateMutability": "view"
    },
    {
      "type": "function",
      "name": "getAllFiles",
      "inputs": [],
      "outputs": [
        {
          "name": "",
          "type": "tuple[]",
          "internalType": "struct Library.File[]",
          "components": [
            {
              "name": "ID",
              "type": "uint256",
              "internalType": "uint256"
            },
            {
              "name": "fileName",
              "type": "string",
              "internalType": "string"
            },
            {
              "name": "ipfsHash",
              "type": "string",
              "internalType": "string"
            },
            {
              "name": "createdAt",
              "type": "string",
              "internalType": "string"
            }
          ]
        }
      ],
      "stateMutability": "view"
    },
    {
      "type": "function",
      "name": "getIpfsHash",
      "inputs": [
        {
          "name": "_fileName",
          "type": "string",
          "internalType": "string"
        }
      ],
      "outputs": [
        {
          "name": "",
          "type": "string",
          "internalType": "string"
        }
      ],
      "stateMutability": "view"
    },
    {
      "type": "function",
      "name": "getMyFiles",
      "inputs": [],
      "outputs": [
        {
          "name": "",
          "type": "tuple[]",
          "internalType": "struct Library.File[]",
          "components": [
            {
              "name": "ID",
              "type": "uint256",
              "internalType": "uint256"
            },
            {
              "name": "fileName",
              "type": "string",
              "internalType": "string"
            },
            {
              "name": "ipfsHash",
              "type": "string",
              "internalType": "string"
            },
            {
              "name": "createdAt",
              "type": "string",
              "internalType": "string"
            }
          ]
        }
      ],
      "stateMutability": "view"
    },
    {
      "type": "function",
      "name": "isUploader",
      "inputs": [
        {
          "name": "",
          "type": "address",
          "internalType": "address"
        }
      ],
      "outputs": [
        {
          "name": "",
          "type": "bool",
          "internalType": "bool"
        }
      ],
      "stateMutability": "view"
    },
    {
      "type": "function",
      "name": "myFiles",
      "inputs": [
        {
          "name": "",
          "type": "address",
          "internalType": "address"
        },
        {
          "name": "",
          "type": "uint256",
          "internalType": "uint256"
        }
      ],
      "outputs": [
        {
          "name": "ID",
          "type": "uint256",
          "internalType": "uint256"
        },
        {
          "name": "fileName",
          "type": "string",
          "internalType": "string"
        },
        {
          "name": "ipfsHash",
          "type": "string",
          "internalType": "string"
        },
        {
          "name": "createdAt",
          "type": "string",
          "internalType": "string"
        }
      ],
      "stateMutability": "view"
    },
    {
      "type": "function",
      "name": "uploadFile",
      "inputs": [
        {
          "name": "_fileName",
          "type": "string",
          "internalType": "string"
        },
        {
          "name": "_ipfsHash",
          "type": "string",
          "internalType": "string"
        },
        {
          "name": "_createdAt",
          "type": "string",
          "internalType": "string"
        }
      ],
      "outputs": [],
      "stateMutability": "nonpayable"
    }
  ],
  "bytecode": {
    "object": "0x6080604052348015600f57600080fd5b506111238061001f6000396000f3fe608060405234801561001057600080fd5b50600436106100935760003560e01c806378d938001161006657806378d938001461012a57806390a4b0df1461015857806392bb481a1461016d578063e775576114610182578063ff24b5d51461019557600080fd5b8063273ccaa2146100985780634f4a2738146100c45780635f9ea0b1146100d75780636db5426a146100f7575b600080fd5b6100ab6100a6366004610c47565b61019d565b6040516100bb9493929190610cb0565b60405180910390f35b6100ab6100d2366004610d11565b610371565b6100ea6100e5366004610dde565b6103b7565b6040516100bb9190610e1b565b61011a610105366004610e35565b60026020526000908152604090205460ff1681565b60405190151581526020016100bb565b61011a610138366004610dde565b805160208183018101805160038252928201919093012091525460ff1681565b6101606104e1565b6040516100bb9190610e50565b61018061017b366004610efe565b61074b565b005b6100ab610190366004610dde565b6109bb565b6101606109e8565b600481815481106101ad57600080fd5b600091825260209091206004909102018054600182018054919350906101d290610f86565b80601f01602080910402602001604051908101604052809291908181526020018280546101fe90610f86565b801561024b5780601f106102205761010080835404028352916020019161024b565b820191906000526020600020905b81548152906001019060200180831161022e57829003601f168201915b50505050509080600201805461026090610f86565b80601f016020809104026020016040519081016040528092919081815260200182805461028c90610f86565b80156102d95780601f106102ae576101008083540402835291602001916102d9565b820191906000526020600020905b8154815290600101906020018083116102bc57829003601f168201915b5050505050908060030180546102ee90610f86565b80601f016020809104026020016040519081016040528092919081815260200182805461031a90610f86565b80156103675780601f1061033c57610100808354040283529160200191610367565b820191906000526020600020905b81548152906001019060200180831161034a57829003601f168201915b5050505050905084565b6001602052816000526040600020818154811061038d57600080fd5b9060005260206000209060040201600091509150508060000154908060010180546101d290610f86565b6060600080836040516103ca9190610fc0565b908152602001604051809103902060020180546103e690610f86565b9050116104305760405162461bcd60e51b8152602060048201526013602482015272119a5b1948191bd95cc81b9bdd08195e1a5cdd606a1b60448201526064015b60405180910390fd5b6000826040516104409190610fc0565b9081526020016040518091039020600201805461045c90610f86565b80601f016020809104026020016040519081016040528092919081815260200182805461048890610f86565b80156104d55780601f106104aa576101008083540402835291602001916104d5565b820191906000526020600020905b8154815290600101906020018083116104b857829003601f168201915b50505050509050919050565b336000908152600160209081526040808320805482518185028101850190935280835260609493849084015b828210156106ff57838290600052602060002090600402016040518060800160405290816000820154815260200160018201805461054a90610f86565b80601f016020809104026020016040519081016040528092919081815260200182805461057690610f86565b80156105c35780601f10610598576101008083540402835291602001916105c3565b820191906000526020600020905b8154815290600101906020018083116105a657829003601f168201915b505050505081526020016002820180546105dc90610f86565b80601f016020809104026020016040519081016040528092919081815260200182805461060890610f86565b80156106555780601f1061062a57610100808354040283529160200191610655565b820191906000526020600020905b81548152906001019060200180831161063857829003601f168201915b5050505050815260200160038201805461066e90610f86565b80601f016020809104026020016040519081016040528092919081815260200182805461069a90610f86565b80156106e75780601f106106bc576101008083540402835291602001916106e7565b820191906000526020600020905b8154815290600101906020018083116106ca57829003601f168201915b5050505050815250508152602001906001019061050d565b50505050905060008151116107465760405162461bcd60e51b815260206004820152600d60248201526c139bc8199a5b1948199bdd5b99609a1b6044820152606401610427565b919050565b60008360405161075b9190610fc0565b9081526020016040518091039020600201805461077790610f86565b1590506107bd5760405162461bcd60e51b815260206004820152601460248201527346696c6520616c7265616479206578697374732160601b6044820152606401610427565b60045460009081036107d1575060006107d6565b506004545b600060405180608001604052808381526020018681526020018581526020018481525090508060008660405161080c9190610fc0565b9081526040516020918190038201902082518155908201516001820190610833908261102d565b5060408201516002820190610848908261102d565b506060820151600382019061085d908261102d565b50503360009081526001602081815260408320805480840182559084529281902085516004909402019283558401518493509082019061089d908261102d565b50604082015160028201906108b2908261102d565b50606082015160038201906108c7908261102d565b50503360009081526002602090815260408220805460ff1916600190811790915560048054918201815592839052845192027f8a35acfbc15ff81a39ae7d344fd709f28e8600b4aa8c65c6b64bfe7fe36bd19b8101928355908401518493507f8a35acfbc15ff81a39ae7d344fd709f28e8600b4aa8c65c6b64bfe7fe36bd19c90910190610955908261102d565b506040820151600282019061096a908261102d565b506060820151600382019061097f908261102d565b50505060016003866040516109949190610fc0565b908152604051908190036020019020805491151560ff199092169190911790555050505050565b8051602081830181018051600082529282019190930120915280546001820180549192916101d290610f86565b600454606090610a2a5760405162461bcd60e51b815260206004820152600d60248201526c139bc8199a5b1948199bdd5b99609a1b6044820152606401610427565b6004805480602002602001604051908101604052809291908181526020016000905b82821015610c3e578382906000526020600020906004020160405180608001604052908160008201548152602001600182018054610a8990610f86565b80601f0160208091040260200160405190810160405280929190818152602001828054610ab590610f86565b8015610b025780601f10610ad757610100808354040283529160200191610b02565b820191906000526020600020905b815481529060010190602001808311610ae557829003601f168201915b50505050508152602001600282018054610b1b90610f86565b80601f0160208091040260200160405190810160405280929190818152602001828054610b4790610f86565b8015610b945780601f10610b6957610100808354040283529160200191610b94565b820191906000526020600020905b815481529060010190602001808311610b7757829003601f168201915b50505050508152602001600382018054610bad90610f86565b80601f0160208091040260200160405190810160405280929190818152602001828054610bd990610f86565b8015610c265780601f10610bfb57610100808354040283529160200191610c26565b820191906000526020600020905b815481529060010190602001808311610c0957829003601f168201915b50505050508152505081526020019060010190610a4c565b50505050905090565b600060208284031215610c5957600080fd5b5035919050565b60005b83811015610c7b578181015183820152602001610c63565b50506000910152565b60008151808452610c9c816020860160208601610c60565b601f01601f19169290920160200192915050565b848152608060208201526000610cc96080830186610c84565b8281036040840152610cdb8186610c84565b90508281036060840152610cef8185610c84565b979650505050505050565b80356001600160a01b038116811461074657600080fd5b60008060408385031215610d2457600080fd5b610d2d83610cfa565b946020939093013593505050565b634e487b7160e01b600052604160045260246000fd5b600082601f830112610d6257600080fd5b813567ffffffffffffffff80821115610d7d57610d7d610d3b565b604051601f8301601f19908116603f01168101908282118183101715610da557610da5610d3b565b81604052838152866020858801011115610dbe57600080fd5b836020870160208301376000602085830101528094505050505092915050565b600060208284031215610df057600080fd5b813567ffffffffffffffff811115610e0757600080fd5b610e1384828501610d51565b949350505050565b602081526000610e2e6020830184610c84565b9392505050565b600060208284031215610e4757600080fd5b610e2e82610cfa565b600060208083018184528085518083526040925060408601915060408160051b87010184880160005b83811015610ef057603f19898403018552815160808151855288820151818a870152610ea782870182610c84565b9150508782015185820389870152610ebf8282610c84565b91505060608083015192508582038187015250610edc8183610c84565b968901969450505090860190600101610e79565b509098975050505050505050565b600080600060608486031215610f1357600080fd5b833567ffffffffffffffff80821115610f2b57600080fd5b610f3787838801610d51565b94506020860135915080821115610f4d57600080fd5b610f5987838801610d51565b93506040860135915080821115610f6f57600080fd5b50610f7c86828701610d51565b9150509250925092565b600181811c90821680610f9a57607f821691505b602082108103610fba57634e487b7160e01b600052602260045260246000fd5b50919050565b60008251610fd2818460208701610c60565b9190910192915050565b601f821115611028576000816000526020600020601f850160051c810160208610156110055750805b601f850160051c820191505b8181101561102457828155600101611011565b5050505b505050565b815167ffffffffffffffff81111561104757611047610d3b565b61105b816110558454610f86565b84610fdc565b602080601f83116001811461109057600084156110785750858301515b600019600386901b1c1916600185901b178555611024565b600085815260208120601f198616915b828110156110bf578886015182559484019460019091019084016110a0565b50858210156110dd5787850151600019600388901b60f8161c191681555b5050505050600190811b0190555056fea26469706673582212206afeeeae125f2a5ae0551f28367c544de4f28ceaffdb89729d764e104bea6d9d64736f6c63430008190033",
    "linkReferences": {}
  },
  "methodIdentifiers": {
    "fileExist(string)": "78d93800",
    "fileList(uint256)": "273ccaa2",
    "files(string)": "e7755761",
    "getAllFiles()": "ff24b5d5",
    "getIpfsHash(string)": "5f9ea0b1",
    "getMyFiles()": "90a4b0df",
    "isUploader(address)": "6db5426a",
    "myFiles(address,uint256)": "4f4a2738",
    "uploadFile(string,string,string)": "92bb481a"
  },
  "id": 20
}